:100000000C94BB0F0C94F30F0C94F30F0C94F30FA0
:100010000C94F30F0C94F30F0C94F30F0C94F30F58
:100020000C94F30F0C94F30F0C94471F0C94031FC4
:100030000C94BF2A0C94F30F0C94F30F0C94F30F51
:100040000C94F30F0C94F30F0C94F30F0C94F30F28
:100050000C94F30F0C9420200C94F30F0C94F30FDA
:100060000C94F30F0C94F30F0C94F30F0C94F30F08
:100070000C94F30F0C94F30F0C94F30F0C94F30FF8
:100080000C94F30F0C94F30F0C94F30F0C94F30FE8
:100090000C94F30F0C94F30F0C94F30F0C94F30FD8
:1000A0000C94F30F0C94F30F0C94F30F05010980DB
:1000B000A101850319012AB700150126B700950192
:1000C00075108100C0050C0901A101850419012AE0
:1000D000A002150126A002950175108100C00660DE
:1000E000FF0961A1010962150026FF00952075082E
:1000F00081020963150026FF00952075089102C052
:1001000005010906A101050719E029E715002501E8
:10011000950875018102950175088101050719008F
:1001200029FF150026FF00950675088100050819AE
:10013000012905950575019102950175039101C08D
:1001400000000000000000000000000000000000AF
:10015000000000000000000000000000000000009F
:10016000000000000000000000000000000000008F
:10017000000000000000000000000000000000007F
:1001800000008080804040202010080402040810F5
:10019000102020404080800000000000000000008F
:1001A000000000000000000000000000000000004F
:1001B000000000000000000000000000000000003F
:1001C000000000000000000000000000000000002F
:1001D000000000000000000000000000000000001F
:1001E000000000000000000000000000000000000F
:1001F0000000003FC10101020204040404020201E4
:1002000001010000000000008000004080804000EC
:1002100000303000000000010264180412C2CA2439
:1002200088F0808040404040202020201010101096
:100230000808080804040404020202020101010182
:1002400000000000000000000000000000000000AE
:10025000000000000000000000000000000000009E
:10026000000000000000000000000000000000008E
:100270000000E0180601000000000000000000007F
:100280000080838340404040202121201010101026
:100290000808080804040404020202020101010122
:1002A000000000000000000000000000000000004E
:1002B000000000000000000000000000000000003E
:1002C000000000000000000000000000000000002E
:1002D000000000000000000000000000000000001E
:1002E000808080804040404020202020101010104E
:1002F000080F080804040404020408101020204019
:100300004041422498C088888C9C1C1E0E06000028
:1003100000000000000000000000000000000000DD
:1003200000000000000000000000000000000000CD
:1003300000000000000000000000000000000000BD
:1003400000000000000000000000000000000000AD
:10035000000000000000000000000000000000009D
:10036000000000000000000000000000000000008D
:10037000000000000000000000000000000000007D
:10038000000000000000000000000000000000006D
:10039000000000000000000000000000000000005D
:1003A000000000000000000000000000000000004D
:1003B000000000000000000000000000000000003D
:1003C000000000000000000000000000000000002D
:1003D000000000000000000000000000000000001D
:1003E000000000000000000000000000000000000D
:1003F00000000000000000000000000000008080FD
:1004000080404020201008040204081010202040E2
:10041000408080000000000000000000000000009C
:1004200000000000000000000000000000000000CC
:1004300000000000000000000000000000000000BC
:1004400000000000000000000000000000000000AC
:10045000000000000000000000000000000000009C
:100460000000000000000000000000000000003F4D
:10047000C1010102020484444442820101010000DE
:10048000000000008000004080804000003030000C
:1004900000000001020404080810204080808080D1
:1004A000404040402020202010101010080808086C
:1004B0000404040402020202010101010000000020
:1004C000000000000000000000000000000000002C
:1004D000000000000000000000000000000000001C
:1004E0000000000000000000000000000000E01814
:1004F000060100000C03000218190005FE8083832A
:100500004040404020212120101010100808080809
:1005100004040404040830408080000001869860D0
:1005200000000000000000000000000000000000CB
:1005300000000000000000000000000000000000BB
:1005400000000000000000000000000000000000AB
:10055000000000000000000000000000808080809B
:10056000404040402020202010101010080F0808A4
:10057000040404040202020201010101000000005F
:100580000000000000000000000000000000000665
:100590000F0F07030361F0F8FC600101013C78F8DC
:1005A000F0700000000000000000000000000000EB
:1005B000000000000000000000000000000000003B
:1005C000000000000000000000000000000000002B
:1005D000000000000000000000000000000000001B
:1005E000000000000000000000000000000000000B
:1005F00000000000000000000000000000000000FB
:1006000000000000000000000000000000000000EA
:1006100000000000000000000000000000000000DA
:1006200000000000000000000000000000000000CA
:1006300000000000000000000000000000000000BA
:1006400000000000000000000000000000000000AA
:10065000000000000000000000000000000000009A
:10066000000000000000000000000000000000008A
:10067000000000000000000000008080804040205A
:100680002010080402040810102020404080800040
:10069000000000000000000000000000000000005A
:1006A000000000000000000000000000000000004A
:1006B000000000000000000000000000000000003A
:1006C000000000000000000000000000000000002A
:1006D000000000000000000000000000000000001A
:1006E00000000000000000000000003FC101010206
:1006F0000204844444428201010100000000000021
:100700008000004080804000003030000000000188
:100710000264180412C2CA2488F08080404040401D
:1007200020202020101010100808080804040404D9
:1007300002020202010101010000000000000000AD
:1007400000000000000000000000000000000000A9
:100750000000000000000000000000000000000099
:1007600000000000000000000000E018060100008A
:100770000C03000218190005FE80838340404040AE
:100780002021212010101010080808080404040477
:10079000020202020101010100000000000000004D
:1007A0000000000000000000000000000000000049
:1007B0000000000000000000000000000000000039
:1007C0000000000000000000000000000000000029
:1007D0000000000000000000808080804040404019
:1007E0002020202010101010080F08080404040412
:1007F00002020202010101010000000000000000ED
:1008000000000000000000000000000000000000E8
:1008100000000000000000000000000000000000D8
:1008200000000000000000000000000000000000C8
:1008300000000000000000000000000000000000B8
:1008400000000000000000000000000000000000A8
:100850000000000000000000000000000000000098
:100860000000000000000000000000000000000088
:100870000000000000000000000000000000000078
:100880000000000000000000000000000000000068
:100890000000000000000000000000000000000058
:1008A0000000000000000000000000000000000048
:1008B0000000000000000000000000000000000038
:1008C0000000000000000000000000000000000028
:1008D0000000000000000000000000000000000018
:1008E0000000000000000000000000000000000008
:1008F000000000808040404020202020201804027A
:100900000102040810202040408080000000000008
:1009100000000000000000000000000000000000D7
:1009200000000000000000000000000000000000C7
:1009300000000000000000000000000000000000B7
:1009400000000000000000000000000000000000A7
:100950000000000000000000000000000000000097
:10096000000000000000003FC10101020204040475
:1009700004020201000000000000000080000040AE
:1009800080804000003030000000000102040408B4
:10099000081020408080808040404040202020205F
:1009A00010101010080808080404040402020202CF
:1009B0000101010100000000000000000000000033
:1009C0000000000000000000000000000000000027
:1009D0000000000000000000000000000000000017
:1009E000000000000000E018060100000000000008
:1009F00000000000008083834040404020212120EF
:100A000010101010080808080404040404083040FA
:100A10008080000001869860000000000000000057
:100A200000000000000000000000000000000000C6
:100A300000000000000000000000000000000000B6
:100A400000000000000000000000000000000000A6
:100A50000000000080808080404040402020202016
:100A600010101010080F08080404040402040810F1
:100A700010202040404142241800000000000000E7
:100A80000000000000000000000000000000000066
:100A90000000010101000000000000000000000053
:100AA0000000000000000000000000000000000046
:100AB0000000000000000000000000000000000036
:100AC0000000000000000000000000000000000026
:100AD0000000000000000000000000000000000016
:100AE0000000000000000000000000000000000006
:100AF00000000000000000000000000000000000F6
:100B000000000000000000000000000000000000E5
:100B100000000000000000000000000000000000D5
:100B200000000000000000000000000000000000C5
:100B300000000000000000000000000000000000B5
:100B400000000000000000000000000000000000A5
:100B50000000000000000000000000000000000095
:100B60000000000000000000000000000000000085
:100B70000000808040404020100804020102040868
:100B800010204080800000000000000000000000F5
:100B90000000000000000000000000000000000055
:100BA0000000000000000000000000000000000045
:100BB0000000000000000000000000000000000035
:100BC0000000000000000000000000000000000025
:100BD0000000000000000000000000000000000015
:100BE0000000003FC10101020204040404020201EA
:100BF00001010000000000000000008000008000F3
:100C00000060600000010204040808101020204069
:100C10008080808040404040202020201010101014
:100C20000808080804040404020202020101010188
:100C300000000000000000000000000000000000B4
:100C400000000000000000000000000000000000A4
:100C50000000000000000000000000000000000094
:100C60000000C0300C030000000000000000000085
:100C70000080868640404040212222201111101021
:100C800008080808040404040408304080800000B8
:100C900001869860000000000000000000000000D5
:100CA0000000000000000000000000000000000044
:100CB0000000000000000000000000000000000034
:100CC0000000000000000000000000000000000024
:100CD0008080808040404040202020201010101054
:100CE000080F08080404040402040810102020401F
:100CF00040414224180000000000000000000000F5
:100D000000000000000000000000000000000101E1
:100D100001000000000000000000000000000000D2
:100D200000000000000000000000000000000000C3
:100D300000000000000000000000000000000000B3
:100D400000000000000000000000000000000000A3
:100D50000000000000000000000000000000000093
:100D60000000000000000000000000000000000083
:100D70000000000000000000000000000000000073
:100D80000000000000000000000000000000000063
:100D90000000000000000000000000000000000053
:100DA0000000000000000000000000000000000043
:100DB0000000000000000000000000000000000033
:100DC0000000000000000000000000000000000023
:100DD0000000000000000000000000000000000013
:100DE0000000000000000000000000000000808003
:100DF00080804040201008040204081020408080B9
:100E000000000000000000000000000000000000E2
:100E100000000000000000000000000000000000D2
:100E200000000000000000000000000000000000C2
:100E300000000000000000000000000000000000B2
:100E400000000000000000000000000000000000A2
:100E50000000000000000000000000000000007E14
:100E600082020204040808080804040201010000C8
:100E700000000000000000800000800000606000B2
:100E800001010204040808101020204080808080A6
:100E90004040404020202020101010100808080872
:100EA0000404040402020202010101010000000026
:100EB0000000000000000000000000000000000032
:100EC0000000000000000000000000000000000022
:100ED0000000000000000000000000000000C03022
:100EE0000C03000000000000000000000080868667
:100EF000404040402122222011111010080808080B
:100F000004040404040830408080000001869860D6
:100F100000000000000000000000000000000000D1
:100F200000000000000000000000000000000000C1
:100F300000000000000000000000000000000000B1
:100F400000000000000000000000000080808080A1
:100F5000404040402020202010101010080F0808AA
:100F600004040404020408101020204040414224DC
:100F70001800000000000000000000000000000059
:100F8000000000000000000000000101010000005E
:100F90000000000000000000000000000000000051
:100FA0000000000000000000000000000000000041
:100FB0000000000000000000000000000000000031
:100FC0000000000000000000000000000000000021
:100FD0000000000000000000000000000000000011
:100FE0000000000000000000000000000000000001
:100FF00000000000000000000000000000000000F1
:1010000000000000000000000000000000000000E0
:1010100000000000000000000000000000000000D0
:1010200000000000000000000000000000000000C0
:1010300000000000000000000000000000000000B0
:1010400000000000000000000000000000000000A0
:101050000000000000000000000000000000000090
:101060000000000000000000000080808080404000
:1010700020100804020408102040808000000000B6
:101080000000000000000000000000000000000060
:101090000000000000000000000000000000000050
:1010A0000000000000000000000000000000000040
:1010B0000000000000000000000000000000000030
:1010C0000000000000000000000000000000000020
:1010D000000000000000000000001C34C4040404F0
:1010E00008080808080404020101000000000000CC
:1010F000800000408080400000303000010102028A
:101100000404040808102040808080804040404053
:1011100020202020101010100808080804040404DF
:1011200002020202010101010000000000000000B3
:1011300000000000000000000000000000000000AF
:10114000000000000000000000000000000000009F
:1011500000000000000000000000E0180601000090
:1011600000000000000000000080838340404040F9
:10117000202121201010101008080808040404047D
:101180000408304080800000018698600000000064
:10119000000000000000000000000000000000004F
:1011A000000000000000000000000000000000003F
:1011B000000000000000000000000000000000002F
:1011C000000000000000000080808080404040401F
:1011D0002020202010101010080F08080404040418
:1011E0000204081010202040404142241800000052
:1011F00000000000000000000000000000000000EF
:1012000000000000000001010100000000000000DB
:1012100000000000000000000000000000000000CE
:1012200000000000000000000000000000000000BE
:1012300000000000000000000000000000000000AE
:10124000000000000000000000000000000000009E
:10125000000000000000000000000000000000008E
:10126000000000000000000000000000000000007E
:10127000000000000000000000000000000000006E
:10128000000000000000000000000000000000005E
:10129000000000000000000000000000000000004E
:1012A000000000000000000000000000000000003E
:1012B000000000000000000000000000000000002E
:1012C000000000000000000000000000000000001E
:1012D000000000000000000000000000000000000E
:1012E0000000008080404040202020202018040280
:1012F000010204081020204040808000000000000F
:1013000000000000000000000000000000000000DD
:1013100000000000000000000000000000000000CD
:1013200000000000000000000000000000000000BD
:1013300000000000000000000000000000000000AD
:10134000000000000000000000000000000000009D
:101350000000000000060D31C1010101020202047B
:1013600004020201000000000000000080000040B4
:1013700080804000003030000000000102040408BA
:101380000810204080808080404040402020202065
:1013900010101010080808080404040402020202D5
:1013A0000101010100000000000000000000000039
:1013B000000000000000000000000000000000002D
:1013C000000000000000000000000000000000001D
:1013D000000000000000E01806010000000000000E
:1013E00000000000008083834040404020212120F5
:1013F0001010101008080808040404040408304001
:10140000808000000186986000000000000000005D
:1014100000000000000000000000000000000000CC
:1014200000000000000000000000000000000000BC
:1014300000000000000000000000000000000000AC
:10144000000000008080808040404040202020201C
:1014500010101010080F08080404040402040810F7
:1014600010202040404142241800000000000000ED
:10147000000000000000000000000000000000006C
:101480000000010101000000000000000000000059
:10149000000000000000000000000000000000004C
:1014A000000000000000000000000000000000003C
:1014B000000000000000000000000000000000002C
:1014C000000000000000000000000000000000001C
:1014D000000000000000000000000000000000000C
:1014E00000000000000000000000000000000000FC
:1014F00000000000000000000000000000000000EC
:1015000000000000000000000000000000000000DB
:1015100000000000000000000000000000000000CB
:1015200000000000000000000000000000000000BB
:1015300000000000000000000000000000000000AB
:10154000000000007E0F00D4FFFFFFC700000078FE
:1015500000000000000000002A2B2800000000000E
:101560000000000000000000000000290000000052
:101570002C1E3420212224342627252E362D3738C0
:10158000271E1F202122232425263333362E3738C9
:101590001F0405060708090A0B0C0D0E0F10111287
:1015A000131415161718191A1B1C1D2F3130232D53
:1015B000350405060708090A0B0C0D0E0F10111251
:1015C000131415161718191A1B1C1D2F3130354C02
:1015D00000DA028180D9F1DB20A4A62EAF00A0C0E2
:1015E00000A1C800AED580A81FD300408D142000F4
:1015F0001E0F0564321420202020202020004341AB
:10160000505300476F706F6C61720000010101015F
:1016100001010101010202020202020202020303AD
:10162000030303030303040404040404040505057D
:10163000050506060606060707070707080808083F
:10164000090909090A0A0A0B0B0B0C0C0C0D0D0DEC
:101650000E0E0E0F0F0F1010111111121213131482
:1016600014151516161717181819191A1A1B1B1CFA
:101670001D1D1E1E1F202021222223242425262654
:10168000272829292A2B2C2D2D2E2F303132323389
:101690003435363738393A3B3C3D3E3F4041424392
:1016A0004445464748494A4C4D4E4F505153545576
:1016B0005658595A5B5D5E5F616264656668696B26
:1016C0006C6D6F7072737577787A7B7D7E808283A4
:1016D0008587888A8C8E8F91939596989A9C9EA0E8
:1016E000A2A3A5A7A9ABADAFB1B3B5B7BABCBEC0F5
:1016F000C2C4C6C9CBCDCFD1D4D6D8DBDDDFE2E4BE
:10170000E7E9EBEEF0F3F5F8FAFDFF2223252628B2
:10171000292A2C2D2F3032333536383A3B3D3E4086
:1017200042434547494A4C4E5051535557595A5CCC
:101730005E6062646668696B6D6F71737577797BE3
:101740007D7F81838587898A8C8E90929496989AE2
:101750009C9E9FA1A3A5A7A8AAACAEAFB1B3B4B6F7
:10176000B8B9BBBCBEBFC1C2C3C5C6C7C9CACBCC52
:10177000CDCED0D1D2D2D3D4D5D6D7D7D8D9D9DA25
:10178000DADBDBDBDCDCDCDCDCDDDDDDDDDCDCDC9A
:10179000DCDCDBDBDBDADAD9D9D8D7D7D6D5D4D3C2
:1017A000D2D2D1D0CECDCCCBCAC9C7C6C5C3C2C197
:1017B000BFBEBCBBB9B8B6B4B3B1AFAEACAAA8A7F4
:1017C000A5A3A19F9E9C9A98969492908E8C8A89AC
:1017D000878583817F7D7B79777573716F6D6B6989
:1017E00068666462605E5C5A5957555351504E4C5E
:1017F0004A4947454342403E3D3B3A38363533320D
:10180000302F2D2C2A29282625232200AF00AE298F
:10181000003A003B003C003D003E003F00400041DC
:1018200000420043004400450000004600470048D5
:101830000035001E001F002000210022002300248C
:10184000002500260027002D002E002A0049004A0E
:10185000004B002B0014001A000800150017001C94
:101860000018000C00120013002F00300031004C53
:10187000004D004E00390004001600070009000A60
:10188000000B000D000E000F003300340000002894
:1018900000000000000000E10001511D001B0006D7
:1018A000001900050011001000360037003800E56F
:1018B000000151000052000000E000E300E20000DF
:1018C0000000002C000000000000000000E6000105
:1018D00051E700E400500051004F0029003A003B5E
:1018E000003C003D003E003F0040004100420043FC
:1018F00000440045000000AA00A800A90035001E11
:10190000001F0020002100220023002400250026C3
:101910000027002D002E002A00AC00AE00AB002BEB
:101920000014001A000800150017001C0018000C15
:1019300000120013002F00300031004C004D004E0B
:1019400000390004001600070009000A000B000D12
:10195000000E000F00330034000000C25C000000E5
:10196000000000E10000001D001B00B2001900058E
:101970000011001000360037003800E500000000BC
:1019800000C95C0000E000E300E200000000002C61
:10199000000000000000000000E6000100E700E495
:1019A00000C35CCA5CC45C09025B00030100A0FACE
:1019B00009040000010301010009211101000122B5
:1019C000400007058103080001090401000203002B
:1019D00000000921110100012222000705820320D5
:1019E00000010705030320000109040200010300B0
:1019F00000000921110100012232000705840320A3
:101A00000001120100020000000850470087010099
:101A1000010200010A0347004700380037000000B8
:101A2000100347006F0050006F006C0061007200EF
:101A300000000403090407087F0807003E5B4F5BB2
:101A40003E003E6B4F6B3E001C3E7C3E1C00183C33
:101A50007E3C18001C577D571C001C5E7F5E1C00DE
:101A600000183C180000FFE7C3E7FF000018241827
:101A70000000FFE7DBE7FF0030483A060E002629AA
:101A800079292600407F05050700407F05253F0096
:101A90005A3CE73C5A007F3E1C1C0800081C1C3EB8
:101AA0007F0014227F2214005F5F005F5F00060941
:101AB0007F017F00006689956A0060606060600059
:101AC00094A2FFA2940008047E04080010207E2047
:101AD000100008082A1C0800081C2A0808001E100C
:101AE000101010000C1E0C1E0C0030383E38300058
:101AF000060E3E0E060000000000000000005F0021
:101B00000000000700070000147F147F1400242A3F
:101B10007F2A1200231308646200364956205000C1
:101B2000000807030000001C224100000041221CA5
:101B300000002A1C7F1C2A0008083E0808000080BC
:101B4000703000000808080808000000606000000D
:101B50002010080402003E5149453E0000427F40EB
:101B600000007249494946002141494D330018148B
:101B7000127F10002745454539003C4A494931004C
:101B8000412111090700364949493600464949298A
:101B90001E00000014000000004034000000000897
:101BA00014224100141414141400004122140800DB
:101BB0000201590906003E415D594E007C12111286
:101BC0007C007F49494936003E41414122007F4126
:101BD00041413E007F49494941007F09090901000F
:101BE0003E41415173007F0808087F0000417F415A
:101BF00000002040413F01007F08142241007F4047
:101C0000404040007F021C027F007F0408107F00DC
:101C10003E4141413E007F09090906003E415121F4
:101C20005E007F091929460026494949320003010F
:101C30007F0103003F4040403F001F2040201F0025
:101C40003F4038403F0063140814630003047804E5
:101C500003006159494D4300007F414141000204A6
:101C600008102000004141417F00040201020400ED
:101C700040404040400000030708000020545478D2
:101C800040007F2844443800384444442800384405
:101C900044287F0038545454180000087E0902007C
:101CA00018A4A49C78007F080404780000447D40B8
:101CB00000002040403D00007F102844000000410B
:101CC0007F4000007C04780478007C0804047800DD
:101CD000384444443800FC182424180018242418DC
:101CE000FC007C08040408004854545424000404F4
:101CF0003F4424003C4040207C001C2040201C002D
:101D00003C4030403C004428102844004C909090C7
:101D10007C004464544C440000083641000000003C
:101D200077000000004136080000020102040200B2
:101D30003C2623263C00000000000000404040F00C
:101D4000F8F8FF38FFF8F83FF8F8FF38FFF8F8F038
:101D500040404000000000000080C0C0C080000083
:101D6000C0C08000000080C0C000C0C0000080C0B3
:101D7000C00000000000C0C0C0C0C000C0C0000063
:101D80000000000000000000000000000000000053
:101D90000000000000000000000000000000000043
:101DA0000000000000000000000000000000000033
:101DB0000000000000C0F0F8FC3E1E06010000001C
:101DC0007F4141417F007F4141417F000080C0E071
:101DD0007E5B4F5BFEC00000C000DCD7DEDEDED7DE
:101DE000DC00C00000000000000000000000000057
:101DF000000000000000000000000000494949FF09
:101E0000FFFFFFE0DFBFBF00BFBFDFE0FFFFFFFF5F
:101E100049494900000000001F3F6060E0BF1F000B
:101E20007F7F071E381E077F7F007F7F0E1F3B715D
:101E30006000000000007F7F0C0C0C007E7E007FA5
:101E40007E0303007F7E03037E7E03037F7E000FFD
:101E50003E703C063C703E0F00327B49493F7E009D
:101E60007F7E0303001E3F69696F260000000000AB
:101E70000000000000030F1F3F3C7870600000006E
:101E80007F4141417F007F4141417F00307B7F782E
:101E900030202030787F3B0003000F7F0F0F0F7F33
:101EA0000F00030000000000000000000000000020
:101EB0000000000000000000000000000101010718
:101EC0000F0F7F0F7F0F0F7E0F0F7F0F7F0F0F07FB
:101ED00001010100000000000000000000010100FD
:101EE00000000000000000000000000000000000F2
:101EF00000000000000000000000000000000000E2
:101F000000000000000000000000000000000000D1
:101F100000000000000000000000000000000000C1
:101F200000000000000000000000000000000000B1
:101F300000000000000000000000000000000000A1
:101F40000000000000000000000000000000000091
:101F50000000000000000000000000000000000081
:101F60000000000000000000000000000000000071
:101F700000000000000011241FBECFEFDAE0DEBF3A
:101F8000CDBF04B603FE18C08091DA079091DB073D
:101F9000A091DC07B091DD078730904BA740B04B94
:101FA00059F41092DA071092DB071092DC071092B6
:101FB000DD07E0E0F8E3099527E0A0E9B1E001C022
:101FC0001D92AA3DB207E1F711E0A0E0B1E0EAE618
:101FD000FFE602C005900D92A039B107D9F70E9423
:101FE000E62A0C948A370C940000CF93DF9340913B
:101FF000D8075091D907485D55409A0124583D4F64
:1020000021303240C0F020E032E0241B350B6091DB
:10201000D6057091D705FC01CA01240F351FC1E018
:10202000D0E08217930750F07093D7056093D605E0
:10203000DF91CF9108952CE732E0E9CF4491DC01A4
:10204000A852BA4F5C91451781F04C93AC01A5E0C2
:1020500056954795AA95E1F7DE0102C0AA0FBB1F6E
:102060004A95E2F7AD016A2B752B01963196D9CFCF
:10207000E8EDF0E080818E7F80831092E200109284
:10208000DA001092E100A0EEB0E08C9181608C93B8
:1020900080818F77808319BCA7EDB0E08C918E7F13
:1020A0008C9380818F7E80831092B4050895209157
:1020B000E4003091E50095E6A9012091EC00822F23
:1020C000817020FF06C08091E80080FF06C080E09C
:1020D00008952091E80022FD1AC08091C10588234F
:1020E00089F0853089F08091EB0085FD0FC020914B
:1020F000E4003091E50042175307F9F29150E1F600
:1021000084E0089582E0089583E0089581E00895D1
:10211000EF92FF920F931F93CF937C018B010E944C
:102120005710C82F811117C08091E80085FD0BC0A2
:102130008091E8008E778093E8000E9457108823F2
:1021400099F3C82F08C0F70181917F018093F100B6
:102150000150110949F78C2FCF911F910F91FF90DA
:10216000EF9008958091C30587FF13C08091E80028
:1021700082FF06C08091E8008B778093E80004C05E
:102180008091C1058111F2CF08958091C105882306
:10219000D9F38091E80080FFF8CF8091E8008E7736
:1021A000ECCF982F9093E900242F762F50E08917D9
:1021B00031F07091EC002091ED005091F00021FD84
:1021C00007C09F5F973071F78093E90081E0089521
:1021D0003091EB003E7F3093EB003091ED003D7F7E
:1021E0003093ED003091EB0031603093EB00709351
:1021F000EC002093ED005093F0002091EE0027FDBD
:10220000E0CF80E00895CF92DF92EF92FF920F939C
:102210001F93CF93DF93C8EDD0E088818F7E8883B2
:10222000E7EDF0E080818160808384E082BF81E01F
:102230008093B40588818E7F888302EE10E0F801D8
:1022400010821092DA0081EEC82ED12CF601108295
:1022500088818F77888388818068888388818F7D53
:10226000888319BC1092C1051092C2051092C00556
:102270001092BF0590EEE92EF12CF70180818B7F43
:10228000808388818160888342E060E080E00E94F2
:10229000D110F60180818E7F8083F801808181607A
:1022A0008083808188608083F70180818E7F808336
:1022B000888180618883DF91CF911F910F91FF907A
:1022C000EF90DF90CF900895FC018091C905909127
:1022D000CA0586179707A0F06115710529F490913A
:1022E000E8009E779093E80090E06115710551F445
:1022F000911108C08091E80082FF34C080E0089509
:10230000BC01F2CF8091C1058823C1F18530C1F1B4
:102310008091E80083FD30C08091E80082FDEACF23
:102320008091E80080FFE1CF8091F3002091F200DE
:10233000382F6115710519F02830310558F091E0FA
:102340002830310509F090E02091E8002E772093A5
:10235000E800CBCF81918093F100615071092F5F2C
:102360003F4FE7CF8091C105882341F0853041F090
:102370008091E80083FFBECF81E0089582E0089558
:1023800083E008950895089508958091B60508950D
:102390002FB7F8946091AD057091AE058091AF05AF
:1023A0009091B0052FBF08952091AA053091AB05FB
:1023B0002817390771F09093AB058093AA05E09137
:1023C000A805F091A905309721F00084F185E02D52
:1023D000099408952091A6053091A705281739077B
:1023E00071F09093A7058093A605E091A805F09160
:1023F000A905309721F00680F781E02D0994089512
:10240000E091A805F091A905309721F00190F081A5
:10241000E02D099480E008952091CF0536E0839F58
:10242000C0011124629F800D911D1124811522E0AD
:10243000920714F090E080E088529A4F9093D90769
:102440008093D8070895FA01811101C0FB01099416
:1024500080919B05982F9E7F61F4817082608093AC
:102460009B0580919E05813418F080E480939E0541
:1024700008958C31B0F381708A61F1CFAF92BF9231
:10248000DF92EF92FF920F931F93CF93DF93082F6A
:10249000162FE901E42FF0E0E55FF94E611110C05D
:1024A000E4915E2F4E2F4983E8835A83DF91CF91C9
:1024B0001F910F91FF90EF90DF90BF90AF90089524
:1024C000E62EF12C4491D42EE42FF0E026E0829FFA
:1024D000C00111242FEF30E0B9010E945633802F44
:1024E00090E0880F991F55E5569FD001579FB00D7A
:1024F00011248A1B9B0B982F990F890F5901AE1835
:10250000BF08AE9ED001AF9EB00DBE9EB00D11248F
:102510005B2F189F80011124012F11275901A01A48
:10252000B10AAE9E8001AF9E100DBE9E100D11240B
:102530005901A81AB108AE9CC001AF9C900DBE9C79
:10254000900D1124892F9927281B390B2E9FC0012C
:102550002F9F900D3E9F900D1124E92F6230710541
:10256000A1F050F46115710509F49DCF613071053A
:1025700081F0EB2F512F97CF6430710569F080F017
:102580006630710509F48FCFF4CFE42F4B2F592F0C
:102590008ACFE42F412F87CFEB2F542F492F83CFA2
:1025A0004B2F5D2DE12F7FCF80E00895F894E82F29
:1025B000E295EF70F0E031A1282F2F7081E090E0DC
:1025C00001C0880F2A95EAF7982F9095932391A33D
:1025D00092A1892B82A3789408959091220292FF70
:1025E00006C0282F28712830F9F4877F846093FF74
:1025F00006C0282F28712831F1F4877E846120914C
:10260000230220FF06C0382F38713830D9F4877F75
:10261000816021FF06C0282F28712831D1F4877EE0
:10262000816194FD877E0895282F24712430F9F666
:102630008B7F8860DCCF282F2471243101F78B7EBB
:102640008861DDCF382F3171313019F78E7F886086
:10265000E0CF282F2171213121F78E7E8861E1CFD3
:10266000CF93DF93EC018238910581F1B0F581338E
:10267000910509F491C020F58932910509F485C0CE
:102680008A9709F490C0C11521E5D20708F0AAC0C5
:10269000C11530E5D30708F0F2C0CF3BD10508F0F3
:1026A00089C0C83AD10508F0DFC0C53AD10508F0A5
:1026B000D3C0C430D105F8F4C130D105E1F040C039
:1026C0008533910509F45AC0C997E9F68091220231
:1026D000837089F0C0EED0E00EC0833E910599F181
:1026E00070F4803E910501F1823E910561F6809182
:1026F000220282FD21C0CE01DF91CF910895863E56
:10270000910561F1873E910571F1843E910509F0D3
:10271000BACF8091230281FFEECF80912202C7EED3
:10272000D0E084FD0DC0E7CF8091220280FDF7C08C
:102730009091230290FFDFCFC3EED0E084FFDBCF88
:10274000D0E0C0E0D8CF8091220282FDEBC0909112
:10275000230290FDBFCF84FFCECFF2CF8091220223
:1027600083FDDDCFC8CF8091220283FDDEC0909132
:10277000230291FFF0CFC4EED0E0BDCF80912202C2
:1027800085FFB9CFC9E2D0E0B6CF8091220285FFA4
:10279000B2CFC5E3D0E0AFCF8091220286FFABCFAE
:1027A000CAE2D0E0A8CF8091220286FFA4CFC1E385
:1027B000D0E0A1CFC11540E2D40760F4C11581E09B
:1027C000D80708F098CFCE01805E9109089708F4E9
:1027D00092CFB6CFC11590E4D90708F4B1CFDF701E
:1027E000D06A89CFC11524E5D20778F4C11533E545
:1027F000D30708F072C0C11542E5D40708F05CC0E9
:10280000DC2FCC27C16FD06A76CFC1158AE5D807F7
:1028100078F4C11599E5D90708F073C0C11528E50A
:10282000D20708F48DCFDC2FCC27C06FD06A63CFDE
:10283000CE0190568115904208F082CF8D2F8F7176
:102840000E94ED1290E0982F882788279F719C01A5
:102850002C2BE901D0624FCFC55AD0E0CD5DDE4FC1
:10286000C881D0E0D06447CFC85AD0E0CC0FDD1F7C
:10287000CA5DDE4F0990D881C02DD4643CCFCE0113
:1028800064E0969587956A95E1F783702C2F2695DD
:102890002695237040E2249F90011124382B8C2F21
:1028A0008370C1E0D0E002C0CC0FDD1F8A95E2F753
:1028B000C22BD32BDC681FCFCE018370992721E078
:1028C00030E002C0220F331F8A95E2F7C695C69505
:1028D00080E2C89FE0011124EBCFCE0183709927DD
:1028E00021E030E002C0220F331F8A95E2F7C6953F
:1028F000C69590E2C99FE0011124C22BD32BDA6860
:10290000FACE8C2F8F700E94ED1234E0D695C795C9
:102910003A95E1F7CF709C2FEC01D069ECCEC9E37A
:10292000D0E0E9CEC2EED0E0E6CEC6EED0E0E3CE17
:10293000E4E9F1E09191891303C0DF0111971C9242
:1029400091E0EA39F907B1F70895A4E9B1E0EFEFB2
:1029500090E02D91821751F0EF3F19F4211101C041
:10296000E92F9F5F9630A9F7EF3F09F408950E2EE7
:10297000000CFF0BEE56FE4F828308958091FB0101
:102980009091CA01981301C008958F5F8770FACFA4
:1029900021E1929F800D1124982F9770869586953E
:1029A000869523E0829FF0011124E356FE4F50E00C
:1029B00040E080E0219130E0092E02C03695279555
:1029C0000A94E2F721703327042E01C0220F0A94E3
:1029D000EAF7822B4F5F5F4F4330510559F7089557
:1029E00021E1929F800D1124982F977041E001C042
:1029F000440F9A95EAF786958695869593E0899F88
:102A0000F0011124E356FE4F90E080E070E0519118
:102A1000DF0111979B01082E02C0369527950A9475
:102A2000E2F7217021952527242325272C93019651
:102A30008330910561F70895809185028531F0F426
:102A400080919B0190E0019665E070E00E947633F2
:102A500080939B0124E030E0281B390B4CE752E0C7
:102A6000249FC001259F900D349F900D11248C54FC
:102A7000974F0C94F50F88E396E0FBCF8832D8F39C
:102A800080919A0190E001968170992780939A0134
:102A900021E030E0281B390B4CE752E0249FC001B5
:102AA000259F900D349F900D1124805C9E4FE1CFA7
:102AB000CF92DF92EF92FF920F931F93CF93DF930A
:102AC0006C017B0164E670E088E70E945532EC01FE
:102AD00097FD12C010E000E0F601E00FF11F8491B5
:102AE00064E670E00E94CF32EC01892B29F40F5F7D
:102AF0001F4F0E151F0581F70E945233CE01DF9143
:102B0000CF911F910F91FF90EF90DF90CF9008959C
:102B10008091A4059091A505911103C091E08927AA
:102B20000895882369F062E070E08DE098E10E94EA
:102B30005815892B19F08091A40508951092A405C9
:102B40008091A405EBCFCF93C091A4058091A505FA
:102B50008823D1F00E94C811605E714B8F4F9F4F48
:102B60006093A0057093A1058093A2059093A3059F
:102B7000C11108C062E070E08BE098E10E94581536
:102B8000892B29F0C091A4058C2FCF91089581E065
:102B90008093A405F7CFCF93DF93C091D807D0914E
:102BA000D9078A30C1F42091CF05CE01885D9540C8
:102BB000622F70E00E945633281B822F66E00E942D
:102BC0006A33C82FC15018F4DF91CF91089580E285
:102BD0000E94CB15F7CF8D30E9F4C85DD540209128
:102BE000CF05622F70E0CE010E945633281B822F42
:102BF0009E01280F311D2115324018F080E0D0E0F1
:102C0000C0E0C80FD11DC852DA4FD093D907C09386
:102C1000D807DACF96E0FE01A0EDB5E001900D9265
:102C20009A95E1F7803E08F458C086E0FE011192C3
:102C30008A95E9F7C091D807D091D90746E050E0CE
:102C4000BE0180ED95E00E9440349E01285D354034
:102C5000892B41F1C90145E0969587954A95E1F7A1
:102C600041E050E0BA0102C0660F771F8A95E2F793
:102C7000CB016091D6057091D705862B972BB901B2
:102C80006B5F7F4FE5E076956795EA95E1F702C0C7
:102C9000440F551F6A95E2F7842B952B9093D70527
:102CA0008093D6052A5F3F4F4091CF05642F70E097
:102CB000C9010E945633481B463010F4240F311DC1
:102CC000211572E0370710F030E020E028523A4F2B
:102CD0003093D9072093D80777CFF6E08F9FB001C4
:102CE00011246A5C754E46E050E0CE010E942A3401
:102CF000A1CFCF93DF93EC01FE018491811103C03A
:102D0000DF91CF9108950E94CB152196F5CF809148
:102D1000050290910402892B8093920148E050E0D3
:102D20006CEF71E082E991E00E944034892BA9F0B8
:102D300088E0E2E9F1E0ACEFB1E001900D928A9514
:102D4000E1F7E091A805F091A905309731F00280F4
:102D5000F381E02D82E991E00994089590E080E00C
:102D60000E94EA1190E080E00E94D41110920402C7
:102D70000C9487168093CE050C94AE168091CE05E8
:102D8000982F9670963019F488600C94BA16877F45
:102D9000FCCF21E030E001C0220F8A95EAF72095B0
:102DA0008091CE0582230C94BA1621E030E001C058
:102DB000220F8A95EAF78091CE05822B0C94BA16E1
:102DC000809306020C94AE1610920502E4E9F1E03D
:102DD00086E0DF011D928A95E9F70C94AE161F93E9
:102DE000CF93DF93CDB7DEB7AA970FB6F894DEBFC7
:102DF0000FBECDBF83EC95E02091F100DC012D9357
:102E0000CD01B5E08B3C9B07B9F78091C4058330B9
:102E100009F472C0B8F4813009F449C0823009F471
:102E2000B3C08091E80083FF8BC28091C30590916D
:102E3000C4059A3008F084C2E92FF0E0E457F84C5A
:102E40000C948A338A3009F48EC08B3009F471C037
:102E5000893039F78091C305813219F78091C70510
:102E60009091C805009711F00297D9F68091E8007B
:102E7000877F8093E8008091E80082FF38C09091BE
:102E8000F3008091F200029731F48091F1008130DB
:102E900011F0863021F48091F1008093B605809185
:102EA000E8008B778093E8000E94B210BACF80913F
:102EB000C305813A09F0B5CF8091E800877F809300
:102EC000E8008091C7059091C805892B61F468E0FE
:102ED00087EB95E070E00E9464118091E8008B77A9
:102EE0008093E8009ECF60E090E080E0F3CF809197
:102EF000C1058111C0CF95CF8091C305813A09F0FA
:102F000090CF8091C7059091C805892B09F089CF92
:102F10008091E800877F8093E8008091E80080FF3F
:102F2000FCCF809119018093F1008091E8008E77A9
:102F3000B9CF8091C305813209F073CF8091C70565
:102F40009091C805892B09F06CCF8091E800877FAC
:102F50008093E8000E94B2108091C505809319010A
:102F60000E94E4165ECF8091C305813209F059CFEB
:102F70008091E800877F8093E8000E94B2108091E2
:102F8000C6058093B5054DCF8091C305813A09F000
:102F900048CF8091E800877F8093E8008091E80027
:102FA00080FFFCCF8091B505BECF803899F0823884
:102FB00009F0C6C18091C7058F70873008F0C0C185
:102FC0008093E9008091EB0085FB882780F91092BF
:102FD000E90006C08091BF059091C0059111826003
:102FE0009091E800977F9093E8008093F100109211
:102FF000F1008091E8008E779FC1882309F48DC18C
:10300000823009F09DC18091C505811190C18091E8
:10301000C7058F702FEF280F263008F091C18093DD
:10302000E9002091EB0020FF82C1933031F48091C0
:10303000EB0080628093EB007AC19091EB0090618D
:103040009093EB0021E030E001C0220F8A95EAF76F
:103050002093EA001092EA008091EB008860EACFAA
:1030600081116EC11091C5051F778091E3008078B2
:10307000812B8093E3008091E800877F8093E800B4
:103080000E94B2108091E80080FFFCCF8091E300A5
:1030900080688093E30082E0111183E08093C10592
:1030A0004FC18058823008F04BC12091C505309146
:1030B000C6052C3DE3E03E07A1F583E08A838AE262
:1030C00089834FB7F894DE01139620E03EE051E289
:1030D000E32FF0E050935700E49120FF03C0E29506
:1030E000EF703F5FEF708E2F90E0EA30C0F0C79630
:1030F0008D939D932F5F243159F74FBF8091E80046
:10310000877F8093E8006AE270E0CE0101960E941A
:1031100064118091E8008B778093E80011C1C0961C
:10312000E7CF8091C7059091C805432F55274330BD
:10313000510509F44AC078F54130510509F47AC0C7
:103140008BE590E0E7EAF9E14230510509F0F8C07B
:103150002091E800277F2093E8002091C905309155
:10316000CA058217930708F49C0140E02115310538
:1031700009F065C0411163C08091E80082FDC9CFAC
:103180008091C105882329F2853019F28091E800E9
:1031900083FFF2CFBECF4132510509F43CC0423229
:1031A000510509F0CDC08330910508F0C9C0FC017C
:1031B000EE0FFF1FEC57FE4F0190F081E02D8F576F
:1031C0009E4FDC018C9190E01AC0332721303105ED
:1031D000D1F02115310561F02230310509F0B0C080
:1031E000E4E1FAE1E4918E2F90E0E4E1FAE107C036
:1031F000E2E3FAE1E4918E2F90E0E2E3FAE1009756
:1032000009F49EC0A5CFE0E2FAE1E4918E2F90E0B0
:10321000E0E2FAE1F4CF8330910508F091C0880F25
:10322000991FFC01E657FE4F0190F081E02D89E0E7
:1032300090E08ECF82E190E0E2E0FAE189CF8091E8
:10324000C105882309F465CF853009F462CF8091E8
:10325000E80083FD5ECF8091E80082FD8DCF8091F4
:10326000E80080FF83CF9091F3008091F200211558
:10327000310519F08830910550F041E0089709F0C8
:1032800040E08091E8008E778093E8006FCF449112
:103290004093F1003196215031090196E8CF8038F2
:1032A00009F04EC08091E800877F8093E80080910C
:1032B000C2058093F1009DCE811142C01091C505D9
:1032C0001230F0F58091E800877F8093E80010933A
:1032D000C2050E94B210112311F084E005C0809154
:1032E000E30087FDFACF81E08093C10542E061EC05
:1032F00081E00E94D11042E261EC84E00E94D11092
:1033000042E261EC82E00E94D11042E260EC83E094
:103310000E94D1108091C10513C08091C5058130F4
:1033200079F481E0933009F080E08093C005109239
:10333000E9008091E800877F8093E8000E94B21046
:103340008091E80083FF0AC08091E800877F809326
:10335000E8008091EB0080628093EB00AA960FB6A4
:10336000F894DEBF0FBECDBFDF91CF911F910895BE
:10337000882341F08095909105028923809305026E
:103380000C9487160895882339F090910502982BA4
:10339000909305020C9487160895882309F452C06F
:1033A000823871F40E94001281FF4CC089E30E94B0
:1033B000A5140E94871689E30E9498140C9487161E
:1033C000833859F40E94001280FF3CC083E50E94BC
:1033D000A5140E94871683E5EFCF843859F40E9424
:1033E000001282FF2FC087E40E94A5140E94871656
:1033F00087E4E2CF9CEF980F913AF0F290E2980FB9
:10340000983088F4877021E030E0A90102C0440FB1
:10341000551F8A95E2F7CA0180959091050289238C
:1034200080930502CBCF9BE5980F933020F490E07A
:1034300080E00C94EA11885A873120F490E080E013
:103440000C94D41108958093B1057093B3056093E3
:10345000B2058091C1058430F9F48093E9008FEFC3
:103460009091E800815095FD06C095ED9A95F1F791
:1034700000008111F5CF8091E80085FF0DC050E07C
:1034800040E063E070E081EB95E00E94881080915D
:10349000E8008E778093E8000895BC0184E00C94E6
:1034A000231ABC0183E00C94231ACF93DF93EC0121
:1034B00081E08093E9008FEF9091E800815095FDC5
:1034C00006C095ED9A95F1F700008111F5CF809136
:1034D000E80085FF14C050E040E068E070E0CE01F5
:1034E0000E9488108091E8008E778093E80088E041
:1034F000FE01A7EBB5E001900D928A95E1F7DF910F
:10350000CF91089581E08093E00080E28093D8001D
:103510001092C9008FE19EE40197F1F700C000000E
:1035200087E090EBDC018093DA079093DB07A093B0
:10353000DC07B093DD0788E19CE00FB6F894A8950E
:10354000809360000FBE90936000FFCF80919B0539
:1035500080FD0AC0E3EDF2E0118210821282339600
:1035600053E0EE3DF507C1F76A9A3EB13B7F2EB1BD
:1035700024604FB7F89483ED92E0FC015191CF01A4
:1035800068E02EB9000000C057FF3EB9550F00009B
:1035900000C000C000C03EB900C06A9591F7F3E0DA
:1035A0008E3D9F0751F74FBF8FE594E00197F1F7EC
:1035B00000C000000895EF92FF921F93CF93DF9316
:1035C000EC0183EDE82E82E0F82E10E040919E059C
:1035D000413408F040E48C81970160919D05810F92
:1035E0000E943E121E5F83E0E80EF11C123B71F751
:1035F0000E94A61A9A818C8190FF08C08F5F8C83ED
:10360000DF91CF911F91FF90EF9008958150F7CFF8
:10361000CF93C82F882309F488C08238C1F40E9450
:10362000001281FD82C089E30E94A5140E948716C2
:103630002FEF81EE94E0215080409040E1F700C0F0
:10364000000089E30E949814CF910C948716833868
:10365000A1F40E94001280FD68C083E50E94A514B9
:103660000E9487162FEF81EE94E021508040904019
:10367000E1F700C0000083E5E5CF8438A1F40E94A3
:10368000001282FD52C087E40E94A5140E94871692
:103690002FEF81EE94E0215080409040E1F700C090
:1036A000000087E4CFCF8CEF8C0F813A68F4E4E917
:1036B000F1E08191C81799F121E0EA39F207C9F7E1
:1036C0008C2F0E94A514C0CF80E28C0F883068F444
:1036D000C77021E030E001C0220FCA95EAF780915F
:1036E0000502822B80930502AFCFEBE5EC0FE330B0
:1036F00040F4F0E0ED5DFE4F808190E0CF910C94BE
:10370000EA11C85AC73188F4EC2FF0E0EE0FFF1F22
:10371000EA5DFE4F80819181CF910C94D4118C2F62
:103720000E9498140E948716CBCFCF9108951F93C3
:10373000CF93DF93182FD0E0C0E0893311F4C0E5B8
:10374000D0E0812F0E94081B209731F4812FDF9158
:10375000CF911F910C94CD198FE99FE00197F1F75C
:1037600000C000002197F0CFCF93DF93C0ECD1E0F1
:1037700060E0CE010E94F3362196C11584E0D8079F
:10378000B9F7DF91CF9108956F927F928F929F92B8
:10379000AF92BF92CF92DF92EF92FF920F931F935F
:1037A000CF93DF938FE0C82E88E1D82E96E1E92EE3
:1037B000FF24F394E701CC5CD10936011BC0F5016D
:1037C00085909490692DC8010E94F336682DC80138
:1037D00001960E94F33682E0A80EB11C0E5F1F4FC7
:1037E000C017D10761F782E2680E711CA296CE1550
:1037F000DF0529F08E01025211095301E0CF7E014D
:103800008CECE80EF11C8CECC80ED11C8EEAE8168C
:1038100082E0F80679F6DF91CF911F910F91FF902A
:10382000EF90DF90CF90BF90AF909F908F907F9060
:103830006F900895CF93C82F6FEF811162E283E2FA
:1038400090E00E94F3366FEFC11163E084E290E0F4
:103850000E94F3366FEFC11160E185E290E0CF91F5
:103860000C94F33680E00E941A1C60E087E290E03E
:103870000E94F33660E086E290E00E94F3360E94F8
:10388000C41B0E94B41B81E00C941A1C0F931F935D
:10389000CF93DF93C42FD0E0CC0FDD1F22E2629FD5
:1038A000C00DD11D11243CEC839FC00DD11D1124EE
:1038B000CE0188960E94DF36082F10E0102F0027D7
:1038C000CE0189960E94DF369801282BC901DF912D
:1038D000CF911F910F910895462F823038F47630A2
:1038E00028F4613118F4672F0C94461C90E080E0B6
:1038F0000895CF92DF92FF920F931F93CF93DF93A0
:103900006C010091CE0580910602082BC7E0D0E043
:1039100010E0FC2EC8010C2E02C0959587950A94E4
:10392000E2F780FD0CC02197A0F7F12C8F2DDF91DD
:10393000CF911F910F91FF90DF90CF900895B60126
:103940008C2F0E946C1C0E943013019761F3EECF04
:10395000CF93DF93EC010E94791CBE010E946C1C86
:10396000DF91CF910C943013FC01808191810E94F2
:10397000A81C92959F70963091F058F4925F9F70BA
:10398000923058F4803F19F030F4883E30F481E0F2
:1039900008959A5FF4CF843FD1F380E00895883E84
:1039A000B0F3813FD1F7F3CF83E290E00E94DF369E
:1039B000823289F484E290E00E94DF36833059F449
:1039C00085E290E00E94DF3691E0803109F090E0DE
:1039D000892F8170089580E0FCCFCF9384E090E040
:1039E0000E94DF36C82F82E290E00E94DF36982FD7
:1039F0008C2FCF9108954F925F926F927F928F920A
:103A00009F92AF92BF92CF92DF92EF92FF920F936D
:103A10001F93CF93DF93FC016280448081E0848315
:103A2000EBE0F7E17490EAE8F7E1E491CEEDD3E062
:103A300033EDE32E32E0F32E4BE9C42E45E0D42ED5
:103A400052E0A52EBB24B39488248A94912C55244B
:103A50005A94E7190E2F10E082E0861530F080911D
:103A60009C05888380919D058983411024C01B8219
:103A70001A824A81413408F040E4970169818881C3
:103A80000E943E12259683E0E80EF11CCC16DD065E
:103A900019F7DF91CF911F910F91FF90EF90DF9079
:103AA000CF90BF90AF909F908F907F906F905F90DE
:103AB0004F900C94A61A8B818823E9F081508B8358
:103AC000859DC00111246C8170E00E945633FB017A
:103AD000FF27E55FF84E8491E82FE719E59DC001C7
:103AE0001124B8010E94563380919E05689FB00151
:103AF00011247A83BECF0E941A3420919E05269508
:103B000021582A9DA0012B9D500D1124452F55278A
:103B1000841795070CF0ADCF82E0861588F40E94DB
:103B20001A34B4010E94763388830E941A3420919B
:103B30009D052695622F70E00E947633280F298319
:103B40001A8280919E05893C20F088EC8C838B83BF
:103B500090CF8431D8F784E1F9CFCF92DF92EF9202
:103B6000FF926B017C010E942812B701A60188E038
:103B700090E0FF90EF90DF90CF900C940537EF929C
:103B8000FF920F931F93CF93DF9300D00F92CDB787
:103B9000DEB7082FF62E142FE22E80919B0580FFB2
:103BA0003AC0E82FE695F0E0ED58FE4F90819093F3
:103BB000D1028E7F8230C9F5413408F040E49E0185
:103BC0002F5F3F4F6F2D802F0E943E1280919B05EB
:103BD00080FF0FC08B8199812A81E3EDF2E0218380
:103BE00090838283339633E0EE3DF307C1F70E9462
:103BF000A61A00939C05F0929D0510939E05EE2059
:103C000051F060919B0570919C0580919D0590916C
:103C10009E050E94AD1D0F900F900F90DF91CF91E8
:103C20001F910F91FF90EF900895923011F700913E
:103C30009C05DFCFEBE9F5E0438128E0421B08F467
:103C400040E021E0628181810C94BF1DEBE9F5E049
:103C5000438128E0420F08F44FEF21E06281818127
:103C60000C94BF1DEBE9F5E0628128E0621B08F4CB
:103C700060E021E0438181810C94BF1DEBE9F5E018
:103C8000628128E0620F08F46FEF21E043818181B7
:103C90000C94BF1DEBE9F5E0818121E04381628155
:103CA00088500C94BF1DEBE9F5E0818121E0438150
:103CB0006281885F0C94BF1D80919F05882319F055
:103CC000815080939F0560919B0570919C05809128
:103CD0009D0590919E050C94AD1D80919F058330AC
:103CE00018F48F5F80939F0560919B0570919C05F0
:103CF00080919D0590919E050C94AD1DEBE9F5E03A
:103D000083E0808311828FEF828380E48383148237
:103D100060817181828193810C94AD1D69EE7EEF8B
:103D200090E080E00E94113760E082E090E00E9425
:103D3000F33660E083E090E00E94F33610920602D2
:103D400060E084E090E00E94F33660E082E290E080
:103D50000E94F33660E085E090E00E94F33660E078
:103D600086E090E00E94F3366FEF87E090E00E94DB
:103D7000F33640E050E0BA0188E090E00E94053759
:103D800060E08DE090E00E94F33640E050E0BA0140
:103D900088E190E00E94053760E087E190E00E94B2
:103DA000F33640E050E0BA018CE190E00E94053724
:103DB00070E060E080E290E00E94113740E050E067
:103DC000BA0188E190E00E94053780E00E941A1C49
:103DD0000E94321C40E050E0BA018FE090E00E9467
:103DE000053740E050E0BA0183E190E00C940537DC
:103DF00090E080E00E94ED36893E9E4F11F40C94D5
:103E0000D41C80E008951F920F920FB60F921124D8
:103E10002F933F934F935F936F937F938F939F93D2
:103E2000AF93BF93CF93DF93EF93FF93D091E900CC
:103E3000DF708091EC00C82FC17080FDC0E8109247
:103E4000E9008091F000877F8093F00078940E94D1
:103E5000EF161092E9008091F00088608093F000E6
:103E6000CD2BCF70C093E900FF91EF91DF91CF91FF
:103E7000BF91AF919F918F917F916F915F914F9182
:103E80003F912F910F900FBE0F901F9018951F928A
:103E90000F920FB60F9211242F933F934F935F937E
:103EA0006F937F938F939F93AF93BF93EF93FF9302
:103EB0008091E10082FF09C08091E20082FF05C08D
:103EC0008091E1008B7F8093E1008091DA0080FF98
:103ED00024C08091D80080FF20C08091DA008E7FBE
:103EE0008093DA008091D90080FF9DC080E189BD78
:103EF00082E189BD09B400FEFDCF81E08093C10558
:103F00008091B405811109C00E9438100E940311EC
:103F10008091E20084608093E2008091E10080FF64
:103F200017C08091E20080FF13C08091E2008E7F75
:103F30008093E2008091E20080618093E2008091B2
:103F4000D80080628093D80019BC85E08093C105B9
:103F50008091E10084FF2BC08091E20084FF27C0A4
:103F600080E189BD82E189BD89B5982F917080FF7C
:103F7000FBCF8091D8008F7D8093D8008091E100A5
:103F80008F7E8093E1008091E2008F7E8093E2003B
:103F90008091E20081608093E2008091C2058823D5
:103FA00009F447C084E08093C1058091C1058091E8
:103FB000E10083FF27C08091E20083FF23C080914E
:103FC000E100877F8093E10082E08093C105109239
:103FD000C2058091E1008E7F8093E1008091E20034
:103FE0008E7F8093E2008091E20080618093E20006
:103FF00042E060E080E00E94D1108091F000886093
:104000008093F000FF91EF91BF91AF919F918F91BD
:104010007F916F915F914F913F912F910F900FBEC4
:104020000F901F90189519BC1092C1051092B405FD
:1040300074CF8091E30087FD93E09093C105B5CFE5
:1040400078941F921FB61F9211248F939F93AF9362
:10405000BF938091AD059091AE05A091AF05B09151
:10406000B0050196A11DB11D8093AD059093AE05DD
:10407000A093AF05B093B005BF91AF919F918F9181
:104080001F901FBE1F9018959C014FB7F894809108
:10409000AD059091AE05A091AF05B091B0054FBFB1
:1040A000821B930B08952FB7F8948091AD059091E2
:1040B000AE05A091AF05B091B0052FBF08950F9345
:1040C0001F93CF93DF93C62FD42F022FFC01828141
:1040D0008823A1F06093CD050E9453209093CC05D6
:1040E0008093CB05C77081E001C0880FCA95EAF7BD
:1040F000DF91CF911F910F910C94C3198091CD0541
:10410000681335C08091CB059091CC050E94442066
:10411000883C910560F510E21D0FCD17B9F080E2E3
:104120008C0F883040F4C77081E001C0880FCA95B9
:10413000EAF70E94B819183048F481E09D2F977073
:1041400001C0880F9A95EAF70E94C319802F0E9438
:10415000971B183098F4D77081E001C0880FDA956A
:10416000EAF7DF91CF911F910F910C94B819C770A6
:1041700081E001C0880FCA95EAF7F3CFDF91CF91B4
:104180001F910F91089560919B05669570E041E045
:1041900050E088E191E00E943334892B19F481E0EA
:1041A0008093D2020E9453209093CC028093CB0242
:1041B000089590919B0590FF36C09170811129C0A0
:1041C000926090939B05662351F060919B057091DE
:1041D0009C0580919D0590919E050E94AD1D60916A
:1041E0009B05669570E041E050E088E191E00E9417
:1041F0003334892BA9F01092D20281E08093CE0251
:1042000020E040919E0560919D0580919C050C9455
:10421000BF1D8E3010F09A61D4CF880F982BD1CF6C
:104220000E94C320EACF089580919B058695815016
:1042300009F48DE061E00C94D92080919B0586956E
:104240008F5F8E3008F081E061E00C94D92090916E
:104250009B0590FF07C09695981720F0961710F4CD
:104260000C941D2161E00C94D9205F926F927F9293
:104270008F929F92AF92BF92CF92DF92EF92FF9276
:104280000F931F93CF93DF9300D000D00F92CDB741
:10429000DEB77C01FC0183819481892B31F0808120
:1042A000918189238F3F09F037C50F900F900F90B0
:1042B0000F900F90DF91CF911F910F91FF90EF9092
:1042C000DF90CF90BF90AF909F908F907F906F9036
:1042D0005F9008950E94791C182F682F89819A8118
:1042E0000E94F01469817A81812F0E946C1C8C01DC
:1042F000F7012281222309F405C590568115F0E2C9
:104300009F0750F0905E811530E1930728F0915C93
:1043100081159F4108F062C0C8019927AC01445043
:1043200051094432510518F08B970E9780F4E091B3
:104330004602F0E0EE0FFF1FE55BFD4F80819181AB
:104340008F3F5FE7950719F0019691838083C8013D
:1043500082519F45409708F09BC48FEF93E00E94E5
:10436000DF36025190ECA92EBB24B39481119DCF6E
:1043700001113DC01C821B82662463948AE0582E82
:1043800085010F5F1F4FC5010E94DF3689831A82A6
:10439000882309F48ACF9FEF980F9330B8F58A836A
:1043A0006982E2E0AE0EB11CC8010E94DF368B8349
:1043B000882309F47ACF8E010F5F1F4FF801208107
:1043C0002223F1F2213009F05BC09181828191308A
:1043D000F9F40E5F1F4F0E94971B20C090E080E011
:1043E0000F3F110511F008F099CFC80197CFA11424
:1043F00084E0B80609F459CFC5010E94DF36811167
:1044000001C001509FEFA91AB90AB2CF5801D3CF0A
:10441000923039F40E5F1F4F0E94081B0F5F1F4F31
:10442000CDCF933029F40E5F1F4F0E94CD19F6CFE8
:10443000943019F00F5F1F4FF1CF0E5F1F4F30E028
:1044400020E0B8016F5F7F4FF80141818053990BE5
:104450008A30910550F02150310900F38FE99FE037
:104460000197F1F700C00000F6CF529EF001539E75
:10447000F00D11249C012E0F3F1F842F8B01E1CFE3
:10448000E22FF0E0E05BFA4E7490822F86958695DD
:10449000869590E0FC01E05CFA4EE4902770F12CE8
:1044A000022E02C0F594E7940A94E2F7E1E0EE22CE
:1044B000FF24FC01E05DFA4EC490D12C022E02C014
:1044C000D594C7940A94E2F7F1E0CF22DD24FC01F1
:1044D000E05EFA4E8490912C02C0959487942A95C0
:1044E000E2F721E082229924E114F10419F081EE2F
:1044F0000E94081BC114D10419F086EE0E94081B0B
:10450000872D0E94971BCD2819F086EE0E94CD19A9
:10451000EF2819F081EE0E94CD19892809F47ECF89
:104520008CE259CF81E00E94D51603C081E00E9441
:10453000C9160F900F900F900F900F90DF91CF91B1
:104540001F910F91FF90EF90DF90CF90BF90AF90B1
:104550009F908F907F906F905F900C94BE16222357
:1045600009F4D8C382E0DFCF053FECE51E0709F46C
:1045700073C008F46DC0063F3CE5130709F470C032
:10458000222309F4DAC31092CD0503304DE5140758
:1045900008F06DC00A3F5CE5150730F4C801825091
:1045A0009C45449708F06DC00E94ED1C9093230237
:1045B000809322020131ECE51E0709F448C108F09E
:1045C000C5C009302CE5120709F42FC108F094C0CA
:1045D00005304CE5140709F420C108F07AC0033017
:1045E0008CE5180709F40FC108F013C1809122026D
:1045F000816002301C4509F409C1609122021091CA
:10460000230284E090E00E94F336612F82E290E082
:104610000E94F3360F900F900F900F900F90DF9144
:10462000CF911F910F91FF90EF90DF90CF90BF90AF
:10463000AF909F908F907F906F905F900C94E41656
:1046400027E245EE65EE47C326E241EE60EE43C346
:1046500027E245EE64EE3FC326E241EE62EE3BC345
:1046600027E245EE66EE37C328E241E0EBCF0136A4
:104670008DE5180709F498CF053A9DE5190709F467
:1046800093CF0631FCE51F0709F063C38091050253
:104690008A7A91E009F490E090939C01811101C124
:1046A00089E20E94A5140F900F900F900F900F9029
:1046B000DF91CF911F910F91FF90EF90DF90CF90FE
:1046C000BF90AF909F908F907F906F905F900C9471
:1046D00087168091220280620730FCE51F0709F4EB
:1046E00095C080912202806108301C4508F48EC07C
:1046F0008091220280648AC0809122028B7F0D30DB
:104700003CE5130709F482C070F4809122028E7F89
:104710000B305CE5150709F479C008F48CC0809172
:1047200022028D7F73C0809122028F7E0F309CE524
:10473000190709F46BC080912202877F00311C4564
:1047400008F464C0809122028F7D60C00D3FFCE5BB
:104750001F0709F478C050F505313CE5130709F44B
:1047600080C098F480912202837F03315CE51507B5
:1047700009F44CC008F46FC00E94E4169091220224
:10478000892F97FB87F9805841C00B3F9CE519079B
:1047900009F447C008F053C08091230281600A3FAA
:1047A0001C4509F02ACF8093230227CF01302DE545
:1047B000120709F462C0B8F4809123028C7F0F3F86
:1047C0004CE5140781F380912302836001151D4598
:1047D00050F380912302982F909591708E7F892BB2
:1047E00090FB81F9E0CF01368DE5180709F44BC045
:1047F000053A9DE5190709F44DC002301D4509F041
:10480000FCCE60E03BC08091220282608093220255
:10481000F4CE809122028460F9CF809122028860D8
:10482000F5CF809123028260BECF0E94E416809172
:1048300022028068EBCF809122028C60E7CF8091CA
:1048400023028E7FB0CF809123028D7FACCF8091E9
:1048500022028F7BDBCF0E94E416809122028F77A9
:10486000D5CF8091220282FB992790F921E09227EF
:1048700090FB82F990FB83F9C9CF61E08EE090E074
:104880000E94F336BACE90912202892F8F7E94FF38
:104890008061BCCF90912202892F8E7F90FF816032
:1048A000B5CF85E3FECE85E351C2816080939B0541
:1048B00061E086950F900F900F900F900F90DF9111
:1048C000CF911F910F91FF90EF90DF90CF90BF900D
:1048D000AF909F908F907F906F905F900C94D920B5
:1048E00044E151E26DE171E20F900F900F900F9053
:1048F0000F90DF91CF911F910F91FF90EF90DF907C
:10490000CF90BF90AF909F908F907F906F905F906F
:104910000C9423124DE151E264E171E2E5CF4AE4E7
:104920005EE163E57EE1E0CF43E55EE16AE47EE1DE
:10493000DBCF42E35EE16EE37EE1D6CF4EE35EE1A4
:1049400062E37EE1D1CF46E25EE16AE17EE1CCCF77
:104950004DE65EE16CE57EE1C7CF0E94E4165FEFB5
:1049600084E39CE0515080409040E1F700C000009B
:104970000E94821A0F900F900F900F900F90DF916E
:10498000CF911F910F91FF90EF90DF90CF90BF904C
:10499000AF909F908F907F906F905F900C948E1E41
:1049A0000E94C814D82EECC1092F0F70907F11F00F
:1049B0000295007F812F2223C9F0002369F090E245
:1049C000910F983010F011110BC080910502082B47
:1049D000009305020E948716812F0E94081B17C0B2
:1049E00080910402082B00930402F4CF0E94CD1999
:1049F000002369F00095105E183010F0B11025C04A
:104A0000809105020823009305020E94871658E052
:104A1000C51AD10884E0C816D10408F046CC0F901E
:104A20000F900F900F900F90DF91CF911F910F91EA
:104A3000FF90EF90DF90CF90BF90AF909F908F90BE
:104A40007F906F905F900C94001280910402082375
:104A500000930402DACF892F8F70907F903211F08B
:104A60008295807FF1E0BF120CC0222329F03630FE
:104A700070F60E94C319CBCF353048F60E94B819A2
:104A8000C6CF222341F03323A1F340FFA5CF4F70BF
:104A9000F7014583EECF332389F3193349F4FFEF50
:104AA00027EE33E0F15020403040E1F700C0000035
:104AB000812F0E94CD19ABCF892F86958695837063
:104AC00061F0813009F0A3CF812F9370211102C0D2
:104AD00090E080E00E94D4119ACF812F9370211131
:104AE00002C090E080E00E94EA1191CF892F83708C
:104AF000A1F521118CCF812F829586958770880F23
:104B0000880F412F4F70082E01C0440F0A94EAF716
:104B1000212F207114FF07C02FE030E001C0220FC9
:104B20008A95EAF72095969596959370923081F044
:104B3000822F842B933030F480910602913029F03B
:104B4000242B82230E94E01662CF842B822BFACF83
:104B5000242B809106028227F5CF8695222311F01F
:104B6000892F8170882309F452CF812F82958695F1
:104B70008770880F880F412F4F70082E01C0440F97
:104B80000A94EAF7212F207114FF07C02FE030E0CC
:104B900001C0220F8A95EAF7209596959695937015
:104BA000923081F0822F842B933030F48091CE05A7
:104BB000913029F0242B82230E94BA1628CF842B0F
:104BC000822BFACF242B8091CE058227F5CF092F97
:104BD0000F70222329F0802F0E94D516812F49CFF4
:104BE000812F0E94B819802F0E94C91610CF812FE3
:104BF00041EF141789F1411750F050EF1517B9F034
:104C00002223B1F13111E8CE892F8F7129C0E2EF53
:104C10001E1749F1F3EF1F13F3CF80E0222361F257
:104C20009F7181E001C0880F9A95EAF7C5CF2223D2
:104C300079F0353008F0EBCE292F2F7181E090E02C
:104C400001C0880F2A95EAF79091CE058927B4CF45
:104C5000363008F0DCCEF0CF892F8F71222321F27D
:104C60000E94D516D4CE892F8F712223C9F3BCCFD1
:104C7000332359F0893309F01BCF2FEF37EE43E090
:104C8000215030404040E1F711CF892F8F71ACCFD8
:104C900000319FE5190709F445CC0131EFE51E0706
:104CA00009F45DCC033F3CE5130709F4CDCC08F0D3
:104CB0005BCC083D5CE5150709F4C2CC093D8CE5E9
:104CC000180709F4D1CC073D9CE5190709F058CC29
:104CD00026E241EE61EEC7010F900F900F900F900A
:104CE0000F90DF91CF911F910F91FF90EF90DF9088
:104CF000CF90BF90AF909F908F907F906F905F907C
:104D00000C945F208031FFE59F0709F40FCC8131BF
:104D10009F4541F682E00BCC85E0DE0111960190C3
:104D20000D928A95E1F7F701228189819A812111FB
:104D3000D1CA0E94C814182FD5CA0631FCE51F0736
:104D4000D1F580919C018111AECD89E20E94981429
:104D5000AACC01153CE5130709F4FFCD0E3D1C4517
:104D600009F408CEF70100811181C801222309F45A
:104D700017CE0E94791CD82E682FC8010E94F0140B
:104D8000B8018D2D0E946C1C0E943013182FB82E74
:104D9000F70122814581342F32953F70892F82950A
:104DA0008F70C82ED12C8C3008F031CEF601EA5627
:104DB000F84C0C948A338091050282720A3C5CE5BF
:104DC000150709F4C0CD08F058C0053CECE51E07F6
:104DD00009F4A5CDE8F5033C3CE5130709F480CDC3
:104DE00008F098CD023C1C4509F0BCCF80919B0592
:104DF00080FF5BCD8E7F80939B0560919B057091BA
:104E00009C0580919D0590919E050E94AD1D10927C
:104E1000D2022FEF30E742E0215030404040E1F72E
:104E200000C000000F900F900F900F900F90DF9137
:104E3000CF911F910F91FF90EF90DF90CF90BF9097
:104E4000AF909F908F907F906F905F900C94A61A78
:104E5000073C9CE5190709F46CCD08F465CD083CC6
:104E6000FCE51F0709F46ACD4AE15EE166E27EE1F6
:104E7000093C1C4509F438CD75CF003D4CE51407BD
:104E8000A8F40E3C5CE5150708F00FCA0C3C9CE545
:104E9000190709F45DCD4CE55EE16DE67EE10D3C60
:104EA0001C4508F421CD61E081E004CD063DFCE520
:104EB0001F07E0F4013D1C4508F0F7C967E082E0F8
:104EC0000F900F900F900F900F90DF91CF911F9147
:104ED0000F91FF90EF90DF90CF90BF90AF909F9099
:104EE0008F907F906F905F900C9427216DE088E009
:104EF0000D351D4529F336CF1F93CF93DF93809156
:104F0000C901807FA9F48091C601882389F080912E
:104F1000FB01D091CA016091C4017091C501A091BB
:104F2000C701B091C801C62FC72316E0D81304C02B
:104F3000DF91CF911F91089590E0109711F0CF3F2E
:104F400019F401968770F2CF189F9001199F300DC8
:104F50001124F901E553FE4F41814713F2CF4081FF
:104F60004613EFCF42814111ECCF438154814A1B5C
:104F70005B0B483C510528F78091C9018F70806117
:104F80008093C901F901E053FE4F80818F708061E9
:104F9000808384EC91E00E943521DF91CF911F91B5
:104FA0000C94BE14AF92BF92CF92DF92EF92FF9219
:104FB0000F931F93CF93DF93CDB7DEB761970FB6F3
:104FC000F894DEBF0FBECDBF8C0185E0F801DE0195
:104FD0001D9601900D928A95E1F7F801E28084EC2C
:104FE000A82E81E0B82E6091C7017091C8016115AB
:104FF000710509F432C19091C4014091C501892F16
:1050000084238F3F09F429C120813181C380D4805A
:10501000F090C601F601E61BF70BFF2009F4E8C08B
:105020008091C901582F507FE83CF10508F0ABC0D2
:10503000511177C0FE2C431321C092131FC0E11001
:105040001DC08F7080618093C901C5010E94352108
:105050008091C901F80185838F2D61960FB6F89470
:10506000DEBF0FBECDBFDF91CF911F910F91FF909B
:10507000EF90DF90CF90BF90AF900895CD2829F0AA
:10508000822F83238F3F09F003C180E0F82FF17056
:10509000DF2E80FF3CC08091FB014091CA0156E0A9
:1050A000841315C02D873E878D859E850E94A81C80
:1050B000292F22952F702230F0F0243018F59F70A0
:1050C000F1F0F8019581907FD1F4D12C1EC090E0D1
:1050D000589FF001599FF00D1124E553FE4F618157
:1050E000361306C06081261303C06281E6120FC02A
:1050F00001968770D5CF9F7011F0882331F3805EC1
:10510000883018F3C8010E943521FD2CA5CFEE2070
:1051100009F4A2CF8091C90181608093C901F12C6B
:105120009BCF431306C0921304C0F801EE2009F48C
:1051300079C0C8010E94B41C882309F1EE20F9F05F
:105140008091C901803270F02091C4013091C50175
:1051500038872F831986DB86CA868C87CE0107960F
:105160000E94352186E0F801A4ECB1E001900D9297
:105170008A95E1F70E947C27FF24F3946DCFC80144
:105180000E943521F9CF51110AC084EC91E00E94B0
:10519000352186E0F50111928A95E9F7C0CF4313D6
:1051A0000FC092130DC0E1100BC0F8018583C80138
:1051B0000E94352186E0F50111928A95E9F74CCFDE
:1051C000C8010E94B41C8823D1F2EE20C1F2809164
:1051D000C901803238F22091C4013091C5013A836F
:1051E00029831B82DD82CC828E83CE010196B8CFCB
:1051F000E83CF105F8F6FE2CEE2009F243131FC03F
:1052000092131DC08091C90180FD10C0982F907F1E
:1052100069F0F8018583903F31F0982F907F905F7F
:105220008F70892B8583C8010E94352186E0F801A3
:10523000A4ECB1E001900D928A95E1F70DCFC80181
:105240000E94B41C81118ECF8091C901816080932E
:10525000C901C8010E943521FFCEEE2009F48FCF8D
:10526000C8010E94B41CF82E882309F488CF86E078
:10527000F801A4ECB1E001900D928A95E1F78091DC
:10528000C4019091C5010E94A81C0E947C27E4CE15
:1052900081E08E25FBCE1F93CF93DF93CDB7DEB792
:1052A00067970FB6F894DEBF0FBECDBF4B8B5C8BFC
:1052B0006D8B7E8B8F8B6111109204021A8A198A72
:1052C00085E0FE017396DE011D9601900D928A9590
:1052D000E1F786E0FE013D96DE01179601900D9202
:1052E0008A95E1F7CE0107960E94D227882389F09C
:1052F00016E08091FB019091CA01891349C067961D
:105300000FB6F894DEBF0FBECDBFDF91CF911F91D6
:10531000089586E0FE013796DE01119601900D9208
:105320008A95E1F78A859B85892B11F38F81988572
:1053300089238F3FE9F22091CA0130E0C90101962B
:10534000877099274091FB014817190671F40E9454
:10535000E4161092CA011092FB0186E0E4ECF1E041
:10536000DF011D928A95E9F7C3CF96E0929FD001A5
:10537000939FB00D1124A553BE4FFE0131960190AD
:105380000D929A95E1F78093CA010E94BE14B0CFA6
:10539000819FC001112485539E4F0E94D2278823EC
:1053A00009F4ADCF8091FB0190E0019687709927B9
:1053B0008093FB019ECF4F925F926F927F928F926C
:1053C0009F92AF92BF92CF92DF92EF92FF920F9394
:1053D0001F93CF93DF93CDB7DEB768970FB6F894DE
:1053E000DEBF0FBECDBF8E010F5F1F4F88E1F801FA
:1053F00011928A95E9F794E5E92E91E0F92E68017A
:10540000AA24A394B12C3BE6832E31E0932EF7011E
:1054100081917F018F3F09F44FC0F894E82FE29506
:10542000EF70F0E021A18F70A50102C0440F551F5D
:105430008A95E2F7CA01922F982B91A392A18095A9
:10544000892382A3789400C0EAE5F1E041E050E0CE
:1054500060E070E0412C512C320121912F3F09F482
:105460006EC0A22FA295AF70B0E090968C9190E0A4
:105470002F7002C0959587952A95E2F780FD5FC051
:10548000DB01CA01482A592A6A2A7B2A440F551F80
:10549000661F771F8E169F0601F7F70131978081EF
:1054A0008F3F11F00E94D61250EA5A95F1F7F6019B
:1054B0004082518262827382F4E0CF0ED11C4AE5B1
:1054C000E41641E0F40609F0A2CF48E150E0B8014B
:1054D0008AE092E00E944034FF24F394009709F49C
:1054E000F12C892B81F188E1F801AAE0B2E001906A
:1054F0000D928A95E1F781E0809309020E94532082
:10550000909308028093070280910702909108020D
:105510000E9444200597D8F0EAE0F2E0A3EBB2E065
:1055200041915191619171914D935D936D937D93F3
:1055300052E0E232F507A1F71092090208C080E0BC
:1055400090E0DC019FCF809109028111DDCF8F2D8A
:1055500068960FB6F894DEBF0FBECDBFDF91CF9136
:105560001F910F91FF90EF90DF90CF90BF90AF9081
:105570009F908F907F906F905F904F9008951F92B3
:105580001FB61F9211248F939F93AF93BF93809167
:10559000AC05811113C08091AD059091AE05A0912D
:1055A000AF05B091B0054196A11DB11D8093AD0529
:1055B0009093AE05A093AF05B093B005BF91AF91A6
:1055C0009F918F911F901FBE1F901895CDB7DEB78A
:1055D000AF970FB6F894DEBF0FBECDBF84B7877FFD
:1055E00084BF0FB6F894A89580916000886180937D
:1055F0006000109260000FBE80E890E00FB6F89453
:1056000080936100909361000FBE85B7806885BF6D
:1056100085B7806885BF84ED92E190939101809376
:1056200090010E9438100E9403118091E200846072
:105630008093E20078948091C1058823A1F01091B5
:10564000E9001F709091EC00892F817090FD80E837
:10565000182B1092E9008091E80083FD0E94EF165C
:105660001F701093E90082E084BD93E095BD9AEF2E
:1056700097BD80936E000E94D41C811102C00E94CD
:10568000321C04E511E04AE5E42E41E0F42ED80195
:105690008D918D018F3F11F00E94D612E016F10618
:1056A000B1F70AE511E03BE6E32E31E0F32EF80115
:1056B00081918F018F3F11F00E94D612E016F10602
:1056C000B1F788E1E3EBF2E0DF01282F1D922A9584
:1056D000E9F7EAE0F2E0DF011D928A95E9F70E941E
:1056E000F81E811102C00E948E1E82E090E00E948E
:1056F000DF36809327020E94ED1C90932302809353
:1057000022020E94DB29BFEFE6E7F1E0B150E04062
:10571000F040E1F700C000000E94DB298091B30255
:1057200080FF08C06FEF7FEF90E080E00E941137AC
:105730000E94821A83E090E00E94DF360E94E01609
:105740001092B00280E88093CF050E944F326DE046
:1057500070E083EE95E10E945815892BE9F5809160
:10576000B00263E070E081FDC2C280EE95E10E946C
:105770005815892B89F56DE070E080ED95E10E9468
:105780005815892B49F50E94C811605E714B8F4FE7
:105790009F4F6093A0057093A1058093A2059093FD
:1057A000A305E8EDF5E080E092E0DF019C011D92A9
:1057B00021503040E1F7F093D907E093D8078FEFFD
:1057C0009FEF9093D7058093D60581E08093A50540
:1057D0008093A4051092B10280912402811133C0FC
:1057E0000E94F81E811104C00E948E1E0E947E1E1F
:1057F00088E090E00E94E73660939B0570939C05DB
:1058000080939D0590939E056E7F71F40E947E1E8D
:1058100088E090E00E94E73660939B0570939C05BA
:1058200080939D0590939E050E9428121092D202AB
:1058300080919B0580FF04C060E086950E94D9207E
:1058400081E08093240284E091E09093A905809305
:10585000A8058091C105FF24F39400E112E1853091
:1058600009F4A5C20E94DB298DA781110E94C811ED
:1058700083EB92E09CA78BA7E8E2F2E0DC0110E06A
:1058800000E0902F4D915D916D917D91C190D190EF
:10589000E190F190C416D506E606F70609F4AAC20F
:1058A000C426D526E626F72680E0812C912C5401CB
:1058B000839426013701482059206A207B204528FF
:1058C0004628472809F48EC289A39AA34821592162
:1058D0006A217B2181E0452B462B472B09F480E090
:1058E0008BA30E9453208160782F9DA38CA349A194
:1058F0005AA16BA18DA10E944B29000F111F000F0F
:10590000111FF801E85DFD4F80819181A281B38173
:1059100088259925AA25BB2580839183A283B383FB
:1059200080904B0290904C02092C000CAA08BB08F6
:105930008091100190E0EBE4F2E021E030E032965B
:10594000821793070CF06DC2809147029091480234
:10595000A0914902B0914A026FB7F894C090AD058A
:10596000D090AE05E090AF05F090B0056FBFC81ABB
:10597000D90AEA0AFB0A1091100199ECC916D10460
:10598000E104F10414F18091460290E0019669E18E
:1059900070E00E94763380934602880F991FFC01C5
:1059A000E55BFD4F11821082812F183108F087E1ED
:1059B0008F5F809310010E94C8116093470270931B
:1059C00048028093490290934A02A2E08A16910409
:1059D000A104B1040CF432C2A0E6BAEEA501940110
:1059E0000E9446374B015C01B8EC1B9F90011124CB
:1059F000032E000C440B550B2C0D3D1D4E1D5F1D41
:105A0000A5E0B0E00E9446379B01AC01C501B4019E
:105A10000E94593769017A01E1EFCE16D104E10401
:105A2000F1042CF020EFC22ED12CE12CF12C80912E
:105A3000420290914302A0914402B09145022FB7D7
:105A4000F8948090AD059090AE05A090AF05B09011
:105A5000B0052FBF881A990AAA0ABB0AF5E68F1665
:105A60009104A104B10484F00E94C8116093420221
:105A70007093430280934402909345028091850283
:105A800080934102C092400210914102A0914002D5
:105A9000A11BBB0BA50194010E94513724E630E005
:105AA00040E050E00E942737120F1093850280914A
:105AB000D202882309F43CC09091D10280919B05C9
:105AC0008695891B8093CD02923009F0BBC18695E3
:105AD000E82FF0E0ED50FA4EE4910E2F10E09BED30
